:020000040000FA
:1000000020080020AD0000001701000011040000CE
:10001000FFFFFFFFFFFFFFFFFFFFFFFFFFFFFFFFF0
:10002000FFFFFFFFFFFFFFFFFFFFFFFF1B010000C0
:10003000FFFFFFFFFFFFFFFF1D0100001F0100008A
:100040000348854600F094F8004800477108000016
:100050002008002001688D464168084730B50B46EE
:10006000014600202022012409E00D46D5409D4292
:1000700005D31D469540491B254695404019154618
:10008000521E002DF1DC30BD10B5092103200022E5
:10009000C9020004012300F017F910BD00690840EF
:1000A00000D0012070477047ED0600001C488047D3
:1000B0001C4880471C4800471C480169002908D19A
:1000C0004169002905D18169002902D1C16900294E
:1000D00009D01748C1680901090D00290ED005296A
:1000E0000CD006290AD0BFF34F8F12481249016085
:1000F00012491148C860BFF34F8FFEE70D480168F1
:100100000D48884200D070470D480E4901600948EB
:100110000D4901607047FEE7FEE7FEE7FEE7FEE7F8
:10012000B90000002D050000410000000003084058
:1001300080010840000000200400FA0500ED00E006
:1001400000810840010000000000000003460B434E
:100150009B0703D009E008C9121F08C0042AFAD27D
:1001600003E00B780370401C491C521EF9D2704703
:10017000064C0125064E05E0E36807CC2B430C3CFA
:1001800098471034B442F7D3FFF75EFF8C0A0000A3
:10019000AC0A0000F0B596460A461349C00046185E
:1001A00000230025FF2098402C46104216D0002046
:1001B000012199408C461146C1406746394206D01C
:1001C00087000F21B9400D437146B9400C43401CD4
:1001D0000828F0D33068A843204330600833361D28
:1001E000082BDEDDF0BD00002020024070B5184D68
:1001F0000446686B4607760F00F02EF8154920601C
:10020000330000F0B7FA081405070714140E111490
:10021000606000E06160296A6068052909D34009CF
:1002200008E00120C003F3E77D200002F0E7002092
:10023000EEE7C840A060A96A4903490F072902D028
:10024000C840E06070BD0321FFF708FFF9E7000038
:100250000080084000127A000C490868C869C20F83
:100260004868400AC007C00F0ED00948002A0BD1C9
:100270008869C00D0007000F00D110208969044A69
:100280004902890F5043C840704700000080084071
:1002900000127A001FB541090A4A89008A18002114
:1002A0002E2800D10221C006C00E1268032383400D
:1002B0001A40C24054186846FFF798FF029804B0ED
:1002C000E04010BD38800840F0B5084F7C6AFD6AF8
:1002D0003E6B84438D439643002B02D004430D4371
:1002E00016437C62FD623E63F0BD00000080084062
:1002F000F7B582B01546002808D000210091C8212A
:10030000FFF7ACFE06460F4600240FE0012005B0C3
:10031000F0BDC8221049284600F03CFB6A46C821BF
:100320000D4800F051FA641CC8350090B442F0D377
:10033000781EC7280AD23A460749284600F02AFB09
:100340006A463946044800F03FFA00900398009945
:1003500001600020DBE700003804002000B50449FC
:1003600008600820C8601420086100F029F800BD6A
:100370000000084010B50A4B03218A00D418246AF3
:10038000E4438450491EF8D5196BC907C917491CA5
:100390000161196B8907C917491C416110BD000033
:1003A0000000084000B5054A106051600420D0608C
:1003B0001420106100F004F800BD000000000840A7
:1003C00010B5124910484A6902231A434A6114229F
:1003D0000A6104E00A691207920F032A01D0401E45
:1003E000F8D28A698C699C438C61910301D5022003
:1003F00010BD910701D5012010BD002801D00020BB
:1004000010BD032010BD0000FFFF0F0000000840DA
:10041000024801680029FCD0704700001800002045
:1004200010B50124240320680721490740180B490F
:10043000884212D260683B21001B890288420CD29C
:100440000749A0030860074800F0EAF821460020A9
:1004500000F04EF82046FFF7FDFD10BD0120000022
:1004600080E100E000100440FFB5044681B002982E
:100470001746221826460120C736C0032546844267
:1004800001D1012300E000232946082000F042F9B1
:100490004F2813D00BE0C8221049384600F060FA0C
:1004A000C8220E49204600F083FA4F2802D0462089
:1004B00005B0F0BD751CC936C834C8370720000325
:1004C0008542E8D90122D20369460298FFF710FF5E
:1004D000009904988142EBD14F20E9E751050020B3
:1004E00001200249800608607047000000E100E03A
:1004F000024A1140014302488160704780FFFF1F9C
:1005000000ED00E0F0B5084F7C68BD68FE688443EC
:100510008D439643002B02D004430D4316437C6069
:10052000BD60FE60F0BD000000810840F0B53749B5
:100530001020C860364E012030603649086B4025D7
:10054000284308633448002344158268272AFCD1D5
:1005500000E0446042689205FBD500E043604268D9
:100560009205FBD43360486A0322920290434862AA
:1005700048680122D202104348608868C008C0075A
:10058000FBD04868C008C000C01C4860486B4007EA
:10059000400F0328FAD1214A1068C008C000401C4F
:1005A00010600B624868A0434860086896153043A5
:1005B0000860486817153843486088688008C00795
:1005C000FBD0086BA84308630868B04308600520A7
:1005D000C005886148682043486088684008C007B3
:1005E000FBD01068C008C000801C10600B62486817
:1005F000C008C000401C4860486B4007400F0128FD
:10060000FAD11168102001431160F0BD008108404B
:10061000008308400080084000A106400002084016
:100620000021012310B59B070A46984200D181158D
:10063000074B984201D103151943064B984201D14B
:10064000C014014301231046FFF75CFF10BD0000FA
:10065000001000400010044070B504460D46C888E4
:100660008988626808432989134B1A40114308435B
:1006700069890843606001208007844206D1182000
:10068000FFF708FE2968FFF7E9FC60620B48844227
:1006900006D11C20FFF7FEFD2968FFF7DFFC606232
:1006A0000748844206D11E20FFF7F4FD2968FFF7B2
:1006B000D5FC606270BD0000FCE0FFFF0010004050
:1006C00000100440002AC26801D00A4300E08A43B7
:1006D000C26070470160704710238B404168002A58
:1006E00001D0194300E09943416070470649086909
:1006F000800608D5054A10680968054B1954401C46
:100700008005800D10607047001004401C00002020
:100710003800002070B51546521A002B08D00A2860
:1007200010D00120C00381420CD31F20800207E0BB
:100730000A2807D001200003814203D33B20800216
:10074000824201D9462070BD01260C46B60203E064
:100750002046FFF703FEA419AC42F9D94F2070BD23
:1007600010B5024A024900F020F810BD050800004B
:100770003400002030B47446641E2578641CAB42FB
:1007800000D21D46635D5B00E31830BC184702E0F1
:1007900008C8121F08C1002AFAD17047002001E0E2
:1007A00001C1121F002AFBD17047F8B516460F464B
:1007B0000446002503E03946B047641C6D1C2078D0
:1007C0000028F8D12846F8BDF0B50026F643002AE7
:1007D00004D01268D2430024094F0DE03246FAE7F4
:1007E000035D5A4008235508D20700D032463A40EC
:1007F0006A405B1EF7D1641C8C42F1D3D043F0BD3C
:100800002083B8ED70B50125044681B2AD072846B6
:10081000FFF760FFAE1531462846FFF73FFC002882
:10082000F9D0204670BD000070B50E4800F0DEF82B
:100830000E480D4C0546806DA0600C484035C06DDB
:1008400020600A48006E60600848014664314EC965
:1008500048304EC03B20800200F0C8F8A869E06034
:1008600070BD000048E8000024000020B80400200B
:10087000FFF736FEFFF708FC00F0D0F8FFF7D4FFD3
:100880001F4E204801682048814235D1012530683B
:10089000ED031D244019E402A0422DD21BA0FFF756
:1008A0005FFF2A461D493068FFF722FD1B4D1C4F94
:1008B0002D1F6868396888421BD11AA0FFF750FFC6
:1008C0000122D2033B68D0103168FFF7CDFDC0B2E2
:1008D00028704F2803D018A0FFF742FFD1E7012569
:1008E000AD020F273F032046FFF738FD6419BC42D5
:1008F000F9D3FFF795FDC4E714A0FFF731FFF8E740
:100900002400002030000020F5FAAA556920616D0E
:10091000207375706D616E210A00000014000020C4
:100920002800002054484953204941502053544145
:100930005254210A0000000061703220746F20615F
:10094000703120657272210A000000007A68656EBD
:10095000676368616E676A696E7275210A000000DC
:10096000F8B50646002017460546044600900CE000
:10097000306800900648042240196946FFF7E6FBFC
:100980002D1D241DEDB2E4B2361DBC42F0D3F8BDDE
:100990005105002070B50024234605E020C80E193B
:1009A0001B1DDBB2241D35609342F7D370BD0000E0
:1009B000F0B587B0054686186846FFF7DBFC0024D3
:1009C000094F0BE03919042206A8FFF7BFFB2846A0
:1009D0000699FFF7E7FC241DE4B22D1DB542F1D3C3
:1009E0004F2007B0F0BD000051050020F8B50646C5
:1009F0000020094F054604460090306800907819A1
:100A000004226946FFF7A2FB641CE4B22D1D361DCB
:100A1000102CF2D3F8BD0000100500203EB50123D4
:100A20009B0319439C1107231B04184321430123F3
:100A3000FFF74AFC062210210220FFF7ABFB06223B
:100A400020210220FFF7A6FBE1204002009069462A
:100A50008C800020C88008814881A4052046FFF7CB
:100A6000FBFD012211462046FFF72CFE012200214A
:100A70002046FFF731FE012211462046FFF72CFEEB
:100A80000149E01108603EBD00E100E0AC0A000051
:100A900010000020280000008E070000D40A00008B
:100AA00038000020E80700009C070000000000005C
:100AB0000000000000000000000000000000000036
:100AC0000000000000000000000000000000000026
:040AD0000000000022
:020000040000FA
:10100000B80C0020AD100000231F0000011F0000DD
:10101000FFFFFFFFFFFFFFFFFFFFFFFFFFFFFFFFE0
:10102000FFFFFFFFFFFFFFFFFFFFFFFFFD210000AE
:10103000FFFFFFFFFFFFFFFFD12000006122000044
:10104000211100006D21000021110000791A00001B
:10105000011B0000091B0000111B0000FFFFFFFF28
:10106000C5170000FFFFFFFF21110000FFFFFFFF7A
:10107000951E000021110000211100002111000027
:1010800021110000B51800002111000021110000FD
:1010900021110000211100002111000099240000FD
:1010A000FFFFFFFF6D240000952400001D488047CE
:1010B0001D4880471D4800471D480169002908D187
:1010C0004169002905D18169002902D1C16900293E
:1010D00009D01848C1680901090D00290ED0052959
:1010E0000CD006290AD0BFF34F8F13481349016073
:1010F00013491248C860BFF34F8FFEE70E480168DE
:101100000E48884200D070470E480F4901600A48D7
:101110000E4901607047FEE7FEE7FEE7FEE7FEE7E7
:10112000FEE70000B9100000692200005111000024
:101130000003084080010840000000200400FA0578
:1011400000ED00E000810840010000000000000008
:101150000348854600F00AFB00480047E5340000DC
:10116000B80C002030B50B46014600202022012497
:1011700009E00D46D5409D4205D31D469540491BCB
:101180002546954040191546521E002DF1DC30BD14
:1011900070B500242546002801DA012440420029C8
:1011A00001DA01254942FFF7DDFFAC4200D04042A1
:1011B000002C00D0494270BDF0B51FB486B00020AD
:1011C0000090019002900698069980B204900798CA
:1011D000090C02040014114307900027089D099888
:1011E00006913E463C4603900398A9B20204000CC7
:1011F000039004982D0C154348430021224600F02B
:10120000F3F9C719714110340E46402CECDB384617
:10121000029A00F0E9F9009A019B80180090594168
:1012200002980191103002904028CCDB00980BB05E
:10123000F0BD10B5C0B2802100F0E6F910BD10B5C8
:101240000F21C0B2490200F0DFF910BD03460B4385
:101250009B0703D009E008C9121F08C0042AFAD26C
:1012600003E00B780370401C491C521EF9D27047F2
:10127000D2B201E00270401C491EFBD2704700222E
:10128000F6E710B513460A4604461946FFF7F0FF85
:10129000204610BD30B504460020034600E05B1C2C
:1012A000934203D2E05CCD5C401BF8D030BD0321FB
:1012B000001D401E037812021A43491EF9D510463C
:1012C0007047F8B502464A40D40F42004B0052081E
:1012D0005B089A4202D20246084611464A0023D0D1
:1012E000C30D4A00DDB2120EAD1A202D35DA4902C7
:1012F0000126490AF6058A19002C00D05242202105
:101300004F1B1146B9402A411018C20D9A4221D0F4
:10131000002C17D0012D08DCDA05801AD20F8019B5
:10132000D207DBB200F08AF9F8BDDA05801A012392
:1013300040001B06C01880185A428018CA0F10437C
:10134000490007E04908C2071143DA05801A8019ED
:101350004008801800F06AF9F8BD61000122511AB6
:10136000001BF7E70122D2075140AAE70122D2076A
:101370005040A6E7024670B54A40D30FDB07400055
:101380002DD04A002AD0010E140E000212020919B3
:10139000400A520A8418E50104465443000A120A1E
:1013A0002E045043A4194219200CC543AA18120C4C
:1013B0000125AD03521C521912047F39240400D0B8
:1013C000521C104301D44000491EC2B20C06C00991
:1013D0002018401C4008802A02D003E0002070BD85
:1013E00040084000002900DA0020184370BD70B5A5
:1013F00002464A40D50F40004A00ED074008520817
:10140000002814D0002A12D0C40DD30D41020120AF
:10141000C0055202490A520AE41A091812187D340A
:10142000914201D3641C00E04900002C01DA002045
:1014300070BD0023914201D3891A0343400849003B
:101440000028F7D100290AD0914202D10121C90711
:1014500005E0914201D2012101E00121C943E005EB
:10146000C018401900F0E2F870BD0000F0B51FB4DC
:1014700088B00B990998002448400999C00F490089
:1014800049080991C0070B990090490049080B9140
:1014900009990898A64608431CD00B990A98084356
:1014A00018D0099801244000420D4800410D0998C8
:1014B00024050003000B204309900B980003000B48
:1014C00020430B9050181C494018002201901446EC
:1014D000104605E0002001460DB0F0BD032801DAFA
:1014E000034600E003239C46C11A0AAE0AE05F00EF
:1014F00008ADED5B4F00F75B7D430027AA187C41E8
:10150000491C5B1E6145F2DD410004AB5A522104C7
:10151000120C0A43240C401C0828DFDB01980290BF
:101520000099704601910090059B049A07990698CE
:1015300000F0CAF8D0E700000DFCFFFF10B5002254
:101540009623114600F07AF810BD410040020122B6
:10155000400AD205090E80187F2901DA0020704761
:10156000962903DC9622511AC84070479639884064
:101570007047C20FD207400040080BD0C10D0723AF
:10158000DB01C91840020905400A1143C20840079F
:1015900011437047002001467047CB0FDB0749001D
:1015A00010B5490802460A4307D00A0D072409036B
:1015B000E401090B121B002A01DC002010BDC90048
:1015C000440F0C43C100E018D205801800F02EF83B
:1015D00010BD00000122D207002800DB101A0029EC
:1015E00000DB511A8142704710B5202A04DB014606
:1015F000203A9140002010BD914020239C1A0346C0
:10160000E3401943904010BD7F2801D9002207E034
:10161000054B42089A5CC00700D112091207120F4D
:101620000120904008407047AA450000002904DAD4
:10163000401C490001D140084000704770B40024AC
:10164000050C05D11024000402D1002921D0112459
:10165000050E01D100020834050F01D10001241D3F
:10166000850F01D18000A41C002801DB4000641C10
:10167000002908D020252E1B0D46F540A14000D0A2
:1016800001212943084301061B1B000ADB1D02D56B
:10169000002070BC7047DB05181880180029F8DAA4
:1016A000401C4900F5D170BC40084000704710B59F
:1016B000002B08DA0024401C614192185B411A4358
:1016C00001D14008400010BDF0B51FB482B00546FE
:1016D0000C0003D0084600F08DFF02E000F08AFF06
:1016E00020300246009021462846FFF77DFF049BEC
:1016F000059A04460F4618431143084314D0184670
:1017000010431BD0009840210A1A1846059900F092
:101710003FF805460E46009A05990498FFF764FFC6
:10172000084305D0012004E02046394607B0F0BD4B
:101730000020C11705430E432C43374300990E98F0
:101740006305401A7905E40A00220C43FD0A0A30B9
:1017500002D500200146E9E70105101969410C9CFA
:101760000D9D00196941FFF7A2FFDFE7064C012537
:10177000064E05E0E36807CC2B430C3C9847103439
:10178000B442F7D3FFF7E8FCEC4500000C4600003C
:1017900010B5202A04DB0846203AD040002110BDB5
:1017A0000B46D340D0402024A21A9140084319464A
:1017B00010BD80220029016801D0114300E091434F
:1017C0000160704770478030002A026801D00A43E8
:1017D00000E08A4302607047930810B59B00181818
:1017E00043689207D20E1F249440A34391400B43B9
:1017F000436010BD5B1E12021B04FF3A013A134303
:101800000B430168802211400B4303607047CA06F6
:10181000D20E026749094901416770470029416FAB
:1018200002D00122114301E0490849004167704795
:1018300010B50022072802D901220838C0B293004F
:10184000054A9A18136880000F248440A3438140FE
:101850001943116010BD000000200240F0B596460B
:101860000A461349C000461800230025FF2098406F
:101870002C46104216D00020012199408C4611467A
:10188000C1406746394206D087000F21B9400D4359
:101890007146B9400C43401C0828F0D33068A84377
:1018A000204330600833361D082BDEDDF0BD00001C
:1018B0002020024010B5104800F02AF80F4B104CC1
:1018C0001868104A401C00211860A04203D9196012
:1018D0001078401C107013780B483B2B03D9117003
:1018E0000278521C027002783B2A04D90170074822
:1018F0000178491C017010BD006007405C000020A9
:10190000E70300006000002061000020620000206A
:101910004168490849004160BFF34F8F7047042276
:101920000029016801D0114300E091430160704734
:101930000029016802D00122114301E04908490051
:101940000160704702220029016801D0114300E0C4
:10195000914301607047C16070478160704700002B
:1019600003498968014201D0012070470020704777
:101970000080084070B5184D0446686B4607760F26
:1019800000F02EF815492060330000F04AFE0814DC
:1019900005070714140E1114606000E06160296AE5
:1019A0006068052909D3400908E00120C003F3E776
:1019B0007D200002F0E70020EEE7C840A060A96AA1
:1019C0004903490F072902D0C840E06070BD0321D8
:1019D000FFF7C8FBF9E700000080084000127A001A
:1019E0000C490868C869C20F4868400AC007C00FA0
:1019F0000ED00948002A0BD18869C00D0007000FDE
:101A000000D110208969044A4902890F5043C84017
:101A1000704700000080084000127A001FB541099D
:101A20000A4A89008A1800212E2800D10221C00606
:101A3000C00E1268032383401A40C24054186846FF
:101A4000FFF798FF029804B0E04010BD38800840CE
:101A5000F0B5084F7C6AFD6A3E6B84438D43964324
:101A6000002B02D004430D4316437C62FD623E63AB
:101A7000F0BD00000080084070B51F4900201F4DD8
:101A800048602968012923D1F9218E072860304652
:101A900000F062FDB4152146304600F019FD002823
:101AA000F9D0F921304600F057FD2146304600F0CC
:101AB0000FFD0028F9D0288881B2304600F04CFD97
:101AC0002146304600F004FD0028F9D002F0D8FB92
:101AD000002000F07BF8012000F026F8022000F042
:101AE00023F8052000F020F80E2000F01DF80F204C
:101AF00000F01AF870BD00001400002064000020FF
:101B000010B500F035FD10BD10B500F031FD10BD71
:101B100010B500F02DFD10BD01218140014841604C
:101B2000816070474040024001218140024881614C
:101B3000BFF34F8F704700004040024010B5084A85
:101B4000536801248440234207D09268C240D007E2
:101B5000C00F884201D0012010BD002010BD000040
:101B6000404002400179027AC90712071143C28836
:101B700000681143024A800080180160704700002D
:101B8000004002400122054B82401868012902D022
:101B90009043186070471043FBE70000404002404C
:101BA00010B50123084C8340012A02D020699843D4
:101BB00006E06069002905D0184360612069184378
:101BC000206110BD9843F8E74040024005490128D4
:101BD000086903D040004008086170470122D2071D
:101BE0001043F9E74040024070B500240125ED03A1
:101BF000224601232946104600F082FA07200321DD
:101C00006E100004890301232246FFF721FF4D4C8B
:101C100000220221204600F01DF90221012208467F
:101C2000FFF71CFE01220221204600F00BF90221E1
:101C30000120FFF7FDFD012211461046FFF7B0FF1E
:101C40000120FFF7C3FF032000F06CF900220421FC
:101C5000204600F0FFF8012204210220FFF7FEFDDC
:101C600001220421204600F0EDF802210846FFF78A
:101C7000DFFD012211460220FFF792FF0120FFF74E
:101C8000A5FF032000F04EF92F4C00222021204612
:101C900000F0E0F8012220211046FFF7DFFD0122CD
:101CA0002021204600F0CEF801210520FFF7C0FDDD
:101CB000012211460520FFF773FF0120FFF786FF81
:101CC000032000F02FF9214C00223146204600F07D
:101CD000C1F8012231460020FFF7C0FD0122314644
:101CE000204600F0AFF800210E20FFF7A1FD0122F1
:101CF00011460E20FFF754FF0120FFF767FF032076
:101D000000F010F900222946204600F0A3F8012235
:101D100029460020FFF7A2FD01222946204600F0B7
:101D200091F800210F20FFF783FD012211460F20BB
:101D3000FFF736FF0120FFF749FF032000F0F2F81C
:101D400070BD000000400B4000200B4000000B4025
:101D500000B5044908600820C8601420086100F03C
:101D600029F800BD0000084010B50A4B03218A0085
:101D7000D418246AE4438450491EF8D5196BC90766
:101D8000C917491C0161196B8907C917491C4161B1
:101D900010BD00000000084000B5054A1060516009
:101DA0000420D0601420106100F004F800BD000091
:101DB0000000084010B5124910484A6902231A432E
:101DC0004A6114220A6104E00A691207920F032A89
:101DD00001D0401EF8D28A698C699C438C619103C2
:101DE00001D5022010BD910701D5012010BD0028AA
:101DF00001D0002010BD032010BD0000FFFF0F0028
:101E000000000840002A026801D00A4300E08A432B
:101E100002607047F0B5002425462346CE0706D061
:101E20005E001746B7403C430327B7403D4349088F
:101E30005B1C102BF2D34169A943416141692143E5
:101E40004161F0BD002A426801D00A4300E08A43A4
:101E500042607047002A08D0012A09D082688A436C
:101E60008260C2688A43C260704782680A43F7E7AB
:101E7000C2680A43C26082688A4382607047C06950
:101E8000084000D001207047002A01D0416270470D
:101E90008162704770B5FF210131154800F05EFA8C
:101EA0001448154D42680021521C426083685B1C37
:101EB0008360C468641CC460AC4203DDC160047804
:101EC000641C047004783B2C03D901704478641CB2
:101ED000447044783B2C03D941708478641C84702E
:101EE000064CA24200DD4160A34200DD816070BD6E
:101EF00000E0064014000020E7030000005C260517
:101F0000024801690029FCD070470000140000203D
:101F100010220029016F01D0114300E091430167B5
:101F200070477047C106C90E01208840014908600A
:101F30007047000000E100E0024A114001430248FE
:101F40008160704780FFFF1F00ED00E0F3B50125C1
:101F50000746002489B0A9032B462A462046FFF7EE
:101F600077FD042211460120FFF778FC16486946E8
:101F700048820C820C75280206948883134E04A9AB
:101F8000304600F053FA02206946087064207D2133
:101F9000C01B490148436421FFF7FAF869464881AC
:101FA000062048800D718D710D728C81304600F0D5
:101FB000EDF901213046FFF7ABFF30460A9900F0FA
:101FC000D2F90BB0F0BD00009F0F000000C002402E
:101FD000F3B5012206460024520789B0D11301232C
:101FE0002046FFF735FD0D2208210120FFF736FCC2
:101FF0001748694648820C820C75FF270137069402
:10200000144D8F8304A9284600F010FA394628465B
:1020100000F0A4F969460C7064207D21801B490101
:1020200048436421FFF7B4F8694648810720488097
:10203000012008714C718C71CC710C724872284669
:1020400000F0A4F928460A9900F08DF90BB0F0BD14
:102050009F0F00000040074005480121416009032F
:1020600042688A43FCD101680029FCD17047000016
:1020700000A1064070B5134A116B4906CB0F116BD6
:1020800040242143116310494D688026B5434D60BB
:102090004D680826B5434D600C490E6904252E4352
:1020A0000E61002B02D1136BA3431363002804D0ED
:1020B00030BF0869A843086170BD40BF20BF20BF82
:1020C000F7E700000080084000A1064000ED00E0B6
:1020D00070470000074A53689168994208D0064843
:1020E000814201D30548906091680878491C91604D
:1020F000704700004C000020D7040020D0020020D0
:10210000F0B5084F7C68BD68FE6884438D439643F4
:10211000002B02D004430D4316437C60BD60FE607B
:10212000F0BD0000008108400449102200288868A2
:1021300001D0104300E090438860704700A0064043
:1021400003498A6802239A43400002438A60704729
:1021500000A00640014800687047000000A006404B
:102160000148C068C0B2704700A0064010B5FFF734
:10217000F1FF05490860FFF7F3FF800703D5034827
:102180000168491C016010BD6C0000207000002037
:10219000044A0029116901D0014300E08143116123
:1021A0007047000000A00640084A0823002808499C
:1021B000906805D0184390608868C006FCD57047C9
:1021C000984390608868C006FCD4704700A0064021
:1021D0000080084003498A6820239A434001024353
:1021E0008A60704700A00640034A91680F231B02D3
:1021F000994301439160704700A00640704700007A
:10220000042204490428086902D0904308617047F9
:102210001043FBE700E000E00749002806D0012852
:10222000086906D0400840000861704700208861B6
:10223000704701221043F7E700E000E00449022262
:102240000028086901D0104300E0904308617047FE
:1022500000E000E0014948617047000000E000E054
:1022600010B501F0F5FF10BDF0B537491020C8607A
:10227000364E012030603649086B402528430863FC
:102280003448002344158268272AFCD100E04460CA
:1022900042689205FBD500E0436042689205FBD49A
:1022A0003360486A032292029043486248680122E0
:1022B000D202104348608868C008C007FBD0486855
:1022C000C008C000C01C4860486B4007400F03288E
:1022D000FAD1214A1068C008C000401C10600B628F
:1022E0004868A0434860086896153043086048680D
:1022F00017153843486088688008C007FBD0086B12
:10230000A84308630868B04308600520C0058861D9
:1023100048682043486088684008C007FBD01068C0
:10232000C008C000801C10600B624868C008C00074
:10233000401C4860486B4007400F0128FAD11168E3
:10234000102001431160F0BD008108400083084067
:102350000080084000A1064000020840C943C16750
:10236000BFF34F8F70470029016902D0012211434A
:1023700001E04908490001617047002A426F01D01D
:102380000A4300E08A43426770470000F0B50C78CA
:10239000A2001218154613469035A032AE46944658
:1023A0006206214D4033120EA84201D1032400E001
:1023B000012494401C4E056DE44325400565456DA0
:1023C0002540B0428E7902D1CF797F003E439640BE
:1023D0002E434665144FB84208D1C66E4D7A26404A
:1023E0000C7A6D002C4394403443C4661C68FF256E
:1023F0000835AC431C601C684D882C431C604C891C
:1024000073461C608C8963461C60B84206D10B7908
:10241000497949000B439340016D02E0036D09794E
:1024200091400B430365F0BD00C0024010B5024669
:102430004B88803293600B88536003680324240424
:10244000A3430360036801242406A34303600368D5
:102450008C6823430360044B984201D10B79D3600D
:102460008989816710BD000000C0024010B5084C8A
:102470002021204600F02CF8002807D02068C0B2A8
:1024800001F05AFF2021204600F01EF810BD000088
:10249000001000407047000010B520214C06204677
:1024A00000F016F800280AD023682046054A044C9C
:1024B00011786354491C1170202100F005F810BDFB
:1024C000540A00208E00002002690A400261704711
:1024D0000069084000D001207047000070B5044634
:1024E0000D46C8888988626808432989134B1A40B9
:1024F00011430843698908436060012080078442D2
:1025000006D11820FFF78AFA2968FEF72BFE6062D1
:102510000B48844206D11C20FFF780FA2968FEF799
:1025200021FE60620748844206D11E20FFF776FA3A
:102530002968FEF717FE606270BD0000FCE0FFFF37
:102540000010004000100440002AC26801D00A4375
:1025500000E08A43C26070470160704710238B40DF
:102560004168002A01D0194300E099434160704757
:1025700070B500210120FFF7E1FA0124174D002872
:1025800003D00120FFF7C8FA2C6000210220FFF7DA
:10259000D5FA002803D00220FFF7BEFA6C600021B4
:1025A0000520FFF7CBFA002803D00520FFF7B4FA87
:1025B000AC6000210E20FFF7C1FA002803D00E20E6
:1025C000FFF7AAFAEC6000210F20FFF7B7FA002806
:1025D00003D00F20FFF7A0FA2C6170BDDC090020AA
:1025E00010B5024A024900F038F810BD2131000050
:1025F0002C0000202021020C01D010211046020ADC
:1026000001D010460839020901D01046091F82087E
:1026100001D01046891E420801D0881E7047081A52
:10262000704730B47446641E2578641CAB4200D2F7
:102630001D46635D5B00E31830BC184702E008C824
:10264000121F08C1002AFAD170477047002001E02C
:1026500001C1121F002AFBD17047F8B516460F467C
:102660000446002503E03946B047641C6D1C207801
:102670000028F8D12846F8BD10B5022220210020FC
:10268000FFF7ECF80E4C01231A4602212046FFF713
:10269000B1F8002207212046FFF79EF801212046CD
:1026A000FFF7B5F8012211462046FFF78CF801210B
:1026B0002046FFF77EF801212046FFF7AFF810BD56
:1026C0000000014010B500F001F810BD7047000097
:1026D00070B50120134940040860134C7D21C900E6
:1026E0002068FEF73FFD114D01462846FFF733F9FC
:1026F00000212846FFF731F901212846FFF718F994
:1027000001212846FFF70BF92168094C2046FFF705
:1027100022F900212046FFF720F901212046FFF78A
:1027200011F970BD00E100E02800002000600740C2
:10273000007007407047704770477047704700004F
:1027400010B5064904480860054908600549FF209E
:10275000087001F06DFA10BDD0020020500000207A
:10276000540000204E0000207047000010B50020EB
:102770000322064901F008FD0322044901F004FD8B
:102780000146E92000F030F810BD000010000020E4
:10279000704770477047000070B5114CFF25E08806
:1027A0000835A8421BD200F02DFD002817D0FFF7F6
:1027B00091FC00F075FF002811D0002000F0CEF948
:1027C000204603220021083001F0F9FB2A460021AF
:1027D000044801F0F4FB0020A0802070608070BDF0
:1027E00030000020D704002070B5114D55222A700A
:1027F000AA226A700022AA70E870080A287169711A
:10280000C91D8CB2601E81B2284600F0E5FC291972
:102810002039C877002C09D003E0287801F0AEFDFC
:102820006D1C2046641EA4B20028F6D170BD0000C5
:10283000DE05002001780A02417811430A028178FE
:10284000C07811430902084370470000F8B560489A
:102850000078604F604D0024604E012864D13878C4
:10286000002810D122214807FFF776FE5C48017846
:1028700000290DD000F032F90220387059490120AA
:10288000087034602C605848007800280CD020E094
:10289000017801208007FFF75FFE01F00FFC642044
:1028A00001F006FB0120E8E74E480078002810D12F
:1028B000387803280DD10120387001F0FFFB642027
:1028C0002C6001F0F5FA642001F0F2FA642001F0C6
:1028D000EFFA45480078022814D1424800780028D1
:1028E00010D1387803280DD10220387000F0F6F8A6
:1028F00064202C6001F0DCFA642001F0D9FA642035
:1029000001F0D6FA3949B8880988884207D836488C
:102910000078012808D133480078002804D13249D2
:102920000120087001F046FC2948007802284ED1A9
:10293000CC214007FFF710FE3878012802D0387804
:10294000022829D101F042FA3878012810D1244A0E
:102950001078002804D130682968401830602C6055
:102960001078012804D130682968401A30602C6042
:102970003878022810D11A4A1078002804D130681B
:102980002968401A30602C601078012804D1306822
:102990002968401830602C603C700D480470306825
:1029A00000F0D0FB37240125A402AD0207277F03E6
:1029B0002046FFF7CDF96419BC42F9DB31683720B6
:1029C0008002FFF7E9F931790948FFF7E5F9F8BD29
:1029D00076000020880000201C0000207C000020E1
:1029E0007500002078000020770000207A00002089
:1029F00004DC0000FEB500252E4614272C46FEF709
:102A00009DFD00902948006B29490005000D6200DA
:102A10008852FEF793FD2749FEF7E9FCFEF7A9FD72
:102A2000254A264BFEF722FDFEF7B7FD2449FEF7A7
:102A3000A1FC019001990098FEF7CCFD07D8012078
:102A4000AB218007FFF788FD38466D1C01E0384652
:102A5000761CFEF773FD0199FEF733FCFEF775FD5A
:102A600087B2082D18DB0126B6070F213046FFF785
:102A700073FD29463846FEF78BFB84B2210A3046A7
:102A8000FFF76AFD21463046FFF766FD0F2130460D
:102A9000FFF762FD2046FEBD641C0A2CB2DB314606
:102AA0003846FEF775FB80B2FEBD00000000014015
:102AB0001209002000F07F456666666666660A4079
:102AC00000007A4410B5C52100200902024A012302
:102AD000FEF7BEFF10BD00005100030170B501F00C
:102AE00075F97D25ED002C46641E002CFCDC0120D0
:102AF00001F052F92846401E0028FCDC0748006817
:102B0000012180B2FFF722FA01210020FFF760FACD
:102B10002C46641E002CFCDC70BD00006800002008
:102B2000F0B50026F643002A04D01268D2430024F0
:102B3000094F0DE03246FAE7035D5A400823550875
:102B4000D20700D032463A406A405B1EF7D1641C7F
:102B50008C42F1D3D043F0BD2083B8EDF1B58AB0FB
:102B600000200190AA480A9C0419E0780090A94826
:102B7000E1C8069007A8E0C00098E22877D02EDCD4
:102B8000062851D007DCA4490300FFF74AFD0534AD
:102B9000373A3D4A1700A1286AD011DC082868D0CE
:102BA0000E280BD120460D3004229CA101F0D6F94D
:102BB00000287AD000210846FFF7D6FD0BB0F0BD03
:102BC000E02873D0E128F9D1A07900286FD00393D1
:102BD00002920091E1790120059B049AB7E0E43864
:102BE0000300FFF71EFD0BBBBFC3C7CB07DBF4FE23
:102BF000F1F00700E2E700F0D7FBDFE701F080FA31
:102C0000DCE700F0F9FAD9E7A0798870012801D053
:102C1000002801D101F016F800210320FFF7E4FDA0
:102C2000CCE701204870C9E72079617900020818D3
:102C300080B20026039034E00A98A51981197448DF
:102C40000818017A407A090240180490AF79009779
:102C5000E8790290287A697A0002081880B2AD1DDE
:102C6000019000F0C7FA014600206E4A08E071E0CA
:102C700091E01DE04300D35CBB4203D0401CC0B2D6
:102C80008842F7D34000801841780298814204D1ED
:102C9000291D019A009800F0D7F804983018001DFB
:102CA00086B203988642C7D388E704E00EE011E0BD
:102CB000FFF708FD82E7E07E0A223038217F50438B
:102CC00030380818404241B2012075E7A079FFF77B
:102CD00060FD73E7E079002804D0012805D00228C0
:102CE00017D02DE0207A504916E0214608310D22F8
:102CF00006A801F044F906A801F0F0F80246607D4C
:102D00000B46082801D2012000E00020A17D4118D7
:102D100016E0207A7D210901401869460882607A10
:102D20008874A07AC874E07A0875207B4875607B47
:102D30008875A07BC875E07B217C0002401881B2B9
:102D4000039302920091E1790020059B049AFFF71A
:102D500021FD33E7A079FFF7F1FC2FE7A079FFF71A
:102D6000E9FC2BE7A079FFF7E7FC27E7A079FFF75D
:102D70000FFD23E7A079FFF7DEFC1FE703222B49B5
:102D8000019801F001FAC0B20322284901F0FCF9D0
:102D9000C1B2E82042E7FFF7D0FC0FE70125ED03C1
:102DA0006F110D2636032846FEF7D2FFE81985B2CB
:102DB000B542F8D3EA2126E02079617900020818AB
:102DC00082B2A11D1AE01DE00DE00AE0FFE701203C
:102DD000EB218007FFF7C0FB2A210D4801F0A0FB83
:102DE000EAE7EC210FE0207961790002081885B24A
:102DF000E91D074801F094FBA11D2A46009800F048
:102E000071FFDBE6EE2101208007FFF7A5FBD3E78A
:102E1000D70400209C4500004C00002074727565AA
:102E2000000000007C450000E207000010000020C8
:102E300004494B2212011046401EFDD1491EFAD111
:102E40007047000074270000F8B5574D00242C602F
:102E50000B4601250146652872D01CDC05295ED091
:102E60000CDC012939D0022950D0042841D1184660
:102E7000114600F059FD0146042056E0102957D0B4
:102E8000132836D11846114600F050FD0146132094
:102E900000F0D6FC58E06C2959D00ADC672968D0CC
:102EA000682826D11E78314600F088FC012869D0B8
:102EB00033E06D2969D078281BD11F461846FEF7EC
:102EC000F6F900BA060AF878360206433146782049
:102ED00000F0B6FC012864D01FE01978002909D061
:102EE00001290DD0022904D1012000F067FCFFF771
:102EF000F5FDF8BD012000F061FC01F0DFF8F8BD40
:102F0000012000F05BFC00F061FFF8BD114618469F
:102F100000F058F8F8BD2846F8BD2046F8BD184620
:102F2000114600F001FD0146052000F047FC0BE0D2
:102F30001846114600F0F8FC01461020F5E7FFE7BF
:102F40001946652000F05AFC0128E6D1E3E71F4648
:102F50001846FEF7ACF900BA060AF87836020643BE
:102F600031466C2000F06CFC0128D6D10F48066079
:102F7000D1E71E786720314600F020FC0128CCD133
:102F80000B4800E00B480670C5E71E786D203146FF
:102F900000F014FC0128C0D10748067007480470EF
:102FA000B9E707480680B6E718000020680000204F
:102FB00075000020760000207700002078000020B7
:102FC0007A000020F8B50446002500F0AFFC014669
:102FD000E478022000F034FC012801D00020F8BD84
:102FE00030480068FEF7AAFA07462E480079FEF737
:102FF000A5FA2D4E3146FEF7FAF93946FEF7BAF931
:10300000FEF7A3FA074627480068FEF797FA0090F4
:103010002046FEF793FA3146FEF7E9F90099FEF7EC
:10302000A9F9FEF792FA06461E480079A04207D297
:10303000F51B01F043F8002210211C48FEF724FF85
:1030400018480079A04207D9BD1BFFF747FD0022B1
:1030500010211648FEF718FF284600F029FF00F05F
:10306000B5FE012210211148FEF70EFF0D4D2C7107
:103070003724A402206828600126B60207277F03B0
:103080002046FEF765FEA419BC42F9D32968372013
:103090008002FEF781FE29790548FEF77DFE0120BA
:1030A000F8BD00007C0000200000C84200200B405A
:1030B00004DC0000F3B581B000280AD0002101250E
:1030C0000091ED03C821FEF74DF806460F46002497
:1030D0000EE00120FEBDC8221049284600F0E7FBA3
:1030E0006A46C8210D48FFF71BFD641CC8350090D7
:1030F000B442F0D3781EC7280AD23A460749284678
:1031000000F0D5FB6A4639460448FFF709FD0090F8
:103110000298009901600020FEBD00009000002090
:1031200070B50125044681B2AD072846FFF714FAB1
:10313000AE1531462846FFF7CBF90028F9D02046D6
:1031400070BD000070B5194C55202070AA20607029
:103150000025A5700720E0702571082060710A2005
:10316000A0710220E071257204206072104801688D
:10317000090EA1720168090CE1720168090A217344
:10318000006860730E21204600F018F8A0730F212C
:10319000204601F0B9F80F21204601F0C1F9054899
:1031A000642105700448FEF76AF870BDE507002049
:1031B0007C0000208E000020F0090020034610B59E
:1031C0000020024605E01C78521C2018C0B292B2C2
:1031D0005B1C8A42F7D310BD034610B5002002469F
:1031E00005E01C78521C2018C0B292B25B1C8A42C7
:1031F000F7D310BD0F20704710B500210220FFF754
:10320000F3FA10BD044841688068814201D0012072
:1032100070470020704700004C00002070B501226C
:1032200010211046FEF71AFB434C1020A062014605
:1032300002222046FEF70EFE032210212046FEF752
:10324000E9FD012210212046FEF7DCFD0122950355
:1032500029460020FEF702FBA562384E02222946CD
:103260003046FEF7F7FD032229463046FEF7D2FD31
:10327000012229463046FEF7C5FD00222946304688
:10328000FEF702FE0122D50329460020FEF7E6FAEA
:10329000002229463046FEF7B5FD02222946304677
:1032A000FEF7D8FD012229463046FEF7CBFD01226C
:1032B00029460020FEF7D2FA002229463046FEF7C2
:1032C000A1FD022229463046FEF7C4FD012229460F
:1032D0003046FEF7B7FD012211461046FEF7BEFA52
:1032E0000120A062014602222046FEF7B3FD012222
:1032F00011462046FEF78EFD012211462046FEF7BC
:1033000081FD012202211046FEF7A8FA0220A062E8
:10331000024601462046FEF79DFD0122022120467D
:10332000FEF778FD012202212046FEF76BFD00200A
:1033300000F032FD70BD000000200B4000000B408B
:103340007FB50024FF250135214601232A46084682
:10335000FEF77EFB69460C8010487D21C90000689D
:10336000FDF700FF6946401E48800C7102940C4C2A
:103370008D812046FFF75AF829462046FEF7EEFFDA
:10338000084A29011160012229462046FEF7F5FF6F
:1033900001212046FEF7E7FF7FBD00002800002046
:1033A00000E0064000E100E010B50A4B002019786B
:1033B000002907D0012100F0F5FEC1B20020FFF77F
:1033C00013FA10BD002100F0EDFEC1B2012018700B
:1033D000F4E700004C000020FEB500240221009418
:1033E0000194224608460294FEF738FA384F00222C
:1033F00002213846FEF706FD002202213846FEF77C
:1034000029FD012202213846FEF71CFD0221012080
:10341000FEF70EFA0120009068460471C48003256F
:103420000572FEF79FFB01210846FEF7ABFB294E14
:1034300010203060002204210220FEF70FFA002243
:1034400004213846FEF7DEFC002204213846FEF750
:1034500001FD012204213846FEF7F4FC0221084652
:10346000FEF7E6F90220009068460471C4800572F8
:10347000FEF778FB01210220FEF784FB05272020C0
:103480003060014600220120FEF7E8F900222021E9
:103490001148FEF7B7FC002220210F48FEF7DAFCA6
:1034A000012220210C48FEF7CDFC01210520FEF76A
:1034B000BFF9684600970471C4800572FEF752FB9D
:1034C00001210520FEF75EFB40203060FEBD0000BC
:1034D00000400B4000E100E000200B4010B5FEF77B
:1034E00083FB10BD012109030020FEF725FD52A03A
:1034F000FFF776F801F03AF8FFF722F9FFF7E2FA62
:1035000000F0C8FE00F0D4FFFFF766FFFFF786FE6D
:10351000FFF7B2F8FFF714FFFFF7DAF800F012FE3A
:1035200000F082FEFFF7DAFFFFF720F93724A4024C
:103530002068454E30606068307130680025401C5E
:103540000CD10127BF022046FEF702FC0720E41938
:1035500040038442F7D36420307135603B49012039
:103560000870002000F018FC012210213848FEF7F6
:103570008BFC384805703848057038480570356050
:10358000374C384F25803D6000F0E6FB00F02CFC06
:10359000FFF75CF9FFF700F93348344902688A42C3
:1035A0002ADD3968002927D1056000F00FFC0120D1
:1035B000386000F057FE0120FEF7B6FA0220FEF751
:1035C000B3FA0520FEF7B0FA0E20FEF7ADFA0F2091
:1035D000FEF7AAFA0120FEF7F9FA00212448FEF7C7
:1035E000E8F824A0FEF7FCFF0120FEF743FD25A02C
:1035F000FEF7F6FFFFF740F8264821880088814251
:10360000C2D90126B607FF213046FEF7A5FF208864
:10361000010A3046FEF7A0FF21883046FEF79CFFE6
:10362000FF213046FEF798FF1BA0FEF7D9FF25804B
:1036300000F0CCFBA8E7000056455253494F4E20FE
:10364000312E312E31210A007C000020590000204B
:1036500000200B407500002076000020770000203D
:103660008C0000206400002018000020307500004D
:1036700000000140656E74657220736C6570702186
:103680000A0000005245424F4F5420736C65707021
:10369000210A00007A000020657869740A000000A1
:1036A000F0B53D4B01465878187000279A78FF26F0
:1036B0001C465A700836083C99703D46552803D17F
:1036C000AA2A01D1080008D0227834481300FEF756
:1036D000A8FF06611A21284F5B3A324600212F4885
:1036E00000F06DFC03222C492C4800F048FC03221A
:1036F0000021294800F063FC0320A08001202070F5
:1037000028466580F0BDA2888018521CA2800170F6
:1037100002202BE0A2888018521CA2800170032096
:1037200024E0A2888318521CA2801970A188A28864
:1037300041182039897F090280182038C07F014351
:103740006180B1420DD903220021134800F037FCFB
:1037500032460021114800F032FCA58025706580BA
:1037600018E0002901D0042000E00520207011E0BD
:10377000A2888018521CA28001706088401E00043C
:10378000000C6080F1D005E0A2888018521CA28055
:10379000017001273846F0BD38000020D704002012
:1037A000FFF746FBBFF34F8F03490248C860BFF3E2
:1037B0004F8FFEE70400FA0500ED00E010B50C465F
:1037C0000D49024609780020012912D0114600F067
:1037D000E9FC042100F0E6FC002100F0E3FC0121FB
:1037E00000F0E0FC214600F0DDFC01460720FEF77A
:1037F000FBFF012010BD00005800002070B50D46F1
:103800000E491446024609780020012913D01146BA
:1038100000F0C8FC032100F0C5FC210A00F0C2FC46
:10382000E1B200F0BFFC2246294600F0ADFC0146A3
:103830000720FEF7D9FF012070BD000058000020CE
:1038400010B50C46124902460978002001291DD006
:10385000114600F0A7FC022100F0A4FC002100F0BA
:10386000A1FC042100F09EFC210E00F09BFC210233
:10387000090E00F097FC2104090E00F093FCE1B260
:1038800000F090FC01460720FEF7AEFF012010BDBE
:103890005800002070B5451801260446B60203E022
:1038A0002046FEF755FAA419AC42F9D370BDF7B51E
:1038B0000646002082B017460546044600900BE0FD
:1038C000306800900398042240196946FDF7BEFC59
:1038D000241D2D1DE4B2361DBC42F1D305B0F0BD50
:1038E000F0B5164687B0044687190D466846FEF7C0
:1038F0003BFA002006E02158491C02D0462007B0C0
:10390000F0BD001DB042F6D30AE00422294606A805
:10391000FDF79CFC20460699FEF73EFA241D2D1D5E
:10392000BC42F2D34F20EAE70078704700B5FEF7BB
:1039300081FF00BDF0B5C3B000244C490546019499
:103940000878032807D00878042804D0DD2000F088
:10395000FDFD43B0F0BD68782A7800021043434A69
:1039600040BA5080E978AB78090292881943521C1A
:1039700049BA904206D0002804D0DD2000F0E6FDD0
:10398000012446E0C82901D9052442E03848016BEA
:103990000120C0030F183748874200D3012438059F
:1039A00008D1012109033846FFF774FF002801D030
:1039B00031A053E0002C2CD1E878A978000208430C
:1039C00046BA3246A91D02A8FDF740FC324602A9BC
:1039D0003846FFF785FF46283FD0254A31466832F2
:1039E00002A8FFF79DF822498866086B80190863D2
:1039F000086F801908671D4801218078C906C00634
:103A0000C84206D1FF221D2079321949C002FFF7B2
:103A100067FF68460470154D04202870012269462E
:103A2000019800F0B1FB0146ED20FEF7DDFE002C11
:103A300018D0DD2000F08AFD0020287000F002F987
:103A4000FF24793421460A48FDF719FC1D2022463F
:103A50000749C002FFF744FF7BE70AA0FEF7C0FD5D
:103A60000424D6E76888A88073E700003C000020A3
:103A700058010020FF0F06007169746120657272A1
:103A8000210A0000716974612074776F2065727279
:103A9000210A0000F0B504468DB000200B905D486F
:103AA0000078012876D1207A617A0004090208188A
:103AB000A17A10220D1821460B3157480A9109901E
:103AC000FDF7E8FB00282DD00027E07E217F0006CF
:103AD00009040818617F09020818A17F0E18E07F09
:103AE000010620462030027812045118427880786E
:103AF0001202511840180890082248A12046FDF7EC
:103B0000C9FB454C543C00280ED0DD2000F01EFDC2
:103B1000012520216846FDF7B2FB68460570002D9F
:103B20003FD06BE00127D0E73F48854233D93F497A
:103B30008E4230D8002F0BD0A06CA84208D1E06C88
:103B4000B04205D1216D0898814201D100251AE0CB
:103B500031483C211C38FDF792FBE6640020A56447
:103B6000A0660898206510220A990998FDF76EFB57
:103B7000206F29492063FF221D2000257932543906
:103B8000C002FFF7ADFE01212248C9038160E16C4C
:103B9000C160BEE73BE0854201D80225B9E70325B5
:103BA000B7E70025089508A9206FFFF783FA0028DA
:103BB0000ED1A06E089988420AD025671649A566DD
:103BC000FF221D2079325439C0022563FFF788FE99
:103BD000206F6A46010E5170010C9170010AD1707C
:103BE0001071A06E010E5171010C9171010AD17119
:103BF00010720848022101704580858019226946AB
:103C00000B9800F0C1FA0146EB20FEF7EDFD0DB078
:103C1000F0BD00003C000020AC0100206239706162
:103C20003475626E0000000000010100FF8F050086
:103C300003480021017041808180084670470000E0
:103C40003C00002010B5084C2078002808D0FF2246
:103C50001D2079320549C002FFF742FE0020207086
:103C600000206080A08010BD3C0000205801002092
:103C70007CB51A4C0025217802292DD10178427893
:103C80000906120451188278C07812025118144E95
:103C9000C8420DD1306F00280AD00020B0663067CE
:103CA0003063FF221D2079323146C002FFF718FE33
:103CB000306F6A46010E1170010C5170010A91704B
:103CC000D0700320207004226946284600F05CFA78
:103CD0000146EC20FEF788FD7CBD00003C00002082
:103CE000580100203EB5EA380D461A4C0300FEF795
:103CF00098FC05041A1F242919002078002811D1E6
:103D00006A460121107051709170D0701071C823F3
:103D1000537121700622694600F036FA0146EA2006
:103D2000FEF762FD3EBD11462846FFF7B3FE3EBDDD
:103D300011462846FFF79CFF3EBD11462846FFF777
:103D4000F9FD3EBD20780028FBD0002000F04EF9A0
:103D50003EBD00003C00002010B50B490878022849
:103D600011D90A4A00201060094C08702088FEF71B
:103D700041FE0849888000F04BFB208800F070FB72
:103D8000212000F01DFB10BD1400002020000020A9
:103D90007A0000208800002010B50B4C01280CD0C0
:103DA000002809D1002201212046FEF76DF80022EB
:103DB00002212046FEF768F810BD01221146204678
:103DC000FEF762F80122F3E700200B4010B5002057
:103DD000FFF7E2FF01210020FEF7B8F801210020E3
:103DE000FEF7B4F810BD0000F8B520212C48FEF70E
:103DF00046F800252B4C00280CD001221021284821
:103E0000FEF742F8284F04213846FEF738F800281C
:103E10000CD012E0002210212148FEF735F8FFF700
:103E2000D5FFA5700020FFF7B7FFEBE700221021B8
:103E30001B48FEF729F80120A070A0781B4E01282E
:103E40000ED100F01DFA3560A5700120FFF7A4FF28
:103E5000FFF7BCFF6420401E0028FCDC00F02EF9B8
:103E600002213846FEF70BF8002806D10022102167
:103E70000B48FEF709F80220A070A07802280ED1A6
:103E800000F0FEF93560A5700120FFF785FFFFF710
:103E90009DFF6420401E0028FCDCFEF71FFEF8BDDD
:103EA00000200B408800002000400B40180000203C
:103EB00010B504460020FEF7AFF90120FEF7ACF97B
:103EC00005490C6008680028FCD1801EFEF7A4F9A3
:103ED0000020FEF7A1F910BD84000020F8B5057898
:103EE000044600272846FDF7A4F9002802D012E076
:103EF0006578641C2846FDF7A2F90028F8D12B2D1F
:103F000002D02D2D02D17F1C6578641C2846FDF758
:103F100090F9002803D03020461BF5170EE0002052
:103F20000146F8BD0A22002330462946FDF744F930
:103F3000009A30239A1AD51716184D416078641CE0
:103F40000090FDF776F90028ECD1002F02D0304622
:103F50002946F8BD00217042A941F8BD10B5002ADC
:103F600003D1002010BD401C491C521E03D0037811
:103F70000C78A342F7D000780978401A10BD30B50C
:103F8000002808D0002906D0884202D98C18844223
:103F900012D2002305E0002030BDCD5CC5545B1C6F
:103FA0009BB29342F9D330BD8B18203BDC7F831842
:103FB000203B521EDC7792B2002AF5D130BD10B5FD
:103FC000031E07D001E019705B1C1446521E92B20A
:103FD000002CF8D110BD0021002806D000E0491CBB
:103FE0000278401C002AFAD108467047FEB5304CD2
:103FF000304D206FE9680026884221D100276946AC
:104000000097FFF757F8002804D1A16E009881426D
:1040100000D0A066216DA06E884201D0022410E07D
:10402000A062E86860620120E06221483C213830EB
:10403000FDF725F90120C00327636066002400E036
:1040400001246846047100202870012201A930462D
:1040500000F09AF80146EE20FEF7C6FBFF261D276A
:104060007936FF02002C0DD000202870FFF7EAFD02
:1040700031460F48FDF703F932460D493846FFF740
:104080002FFCFEBD32460A493846FFF729FC3B2685
:10409000B602094F3446751C2046FDF759FE641CD4
:1040A000AC42F9D339463046FDF776FEFFF778FB90
:1040B000580100203C000020F5FAAA5570B5FFF722
:1040C00085FE7D25ED002C46641E002CFCDC0120C5
:1040D000FFF762FE2846401E0028FCDC012100207C
:1040E000FDF734FF05480068012180B2FDF770FF3D
:1040F0002C46641E002CFCDC70BD00006800002013
:1041000010B500240AA0FFF766FF82B208A120467E
:1041100000F03AF8C4B209A0FFF75DFF82B207A130
:10412000204600F031F8C1B20120FEF75DFB10BD62
:10413000623970613475626E00000000312E312EDC
:104140003100000010B50F4902200860FDF784FF20
:104150000120FEF73FF80120FEF726F81020FDF7BA
:10416000FFFB0028FAD00120FDF7EAFF01210846F5
:10417000FEF70EF80F200002FEF736F80120FDF7DB
:10418000D3FF10BD00E100E070B5044604481546B9
:104190000019801DFDF75AF8601980B270BD00004B
:1041A000DE050020024A1218401C917180B270474F
:1041B000DE05002070B5FFF709FE174E3378174D66
:1041C000002217481749012B0FD12B78002B04D15F
:1041D00003680C681B1903600A602B78012B04D15B
:1041E00003680C681B1B03600A603378022B0FD135
:1041F0002B78002B04D103680C681B1B03600A603A
:104200002B78012B04D103680C681B1903600A602A
:104210000320307070BD0000880000207500002071
:104220007C0000201C00002010B50420C043FDF7D6
:10423000E7FF06487D2189010068FCF793FFFEF740
:1042400009F80120FDF7FAFF10BD0000280000204A
:1042500003480168002902D00168491E01607047C7
:104260008400002010B5012291030348FDF70CFEE5
:104270000248FFF71DFE10BD00000B408813000030
:1042800010B50121002289030148FDF7FDFD10BD95
:1042900000000B403EB5002409212246C90201233B
:1042A0001046FDF7D5FB062280210120FDF7D6FA46
:1042B000FF250135062229460120FDF7CFFA4B20C4
:1042C000C001009068468580C480048144810C4C04
:1042D00069462046FEF702F9012211462046FEF704
:1042E00033F9012200212046FEF738F90122114658
:1042F0002046FEF733F90349600308603EBD000025
:104300000010004000E100E0F8B50D46064600242C
:10431000084F0BE0315D3846FEF71EF9FF210131F1
:104320003846FEF7D5F80028F8D0641CAC42F1DB23
:10433000F8BD00000010004030B50B4B0B4A196867
:104340001268914203D90A4D8C1AAC420BD29142A9
:1043500001D28A4207D0074A914201D30649196027
:104360000870491C196030BD500000205400002026
:1043700007020000D7040020D002002010B500F092
:1043800001F810BD70B50D4D064601462846FEF7F2
:10439000E3F8AC1521462846FEF79AF80028F9D034
:1043A0000125AD0731462846FEF7D6F821462846B6
:1043B000FEF78EF80028F9D070BD00000010004014
:1043C00010B5124C55212170AA2161700021A170F5
:1043D0000722E2702171082262710D22A27102226D
:1043E000E271217204216172010EA172010CE1726D
:1043F000010A217360730E212046FEF7DFFEA073D1
:104400000F212046FFF780FF10BD0000E5070020C8
:1044100010B5124C55212170AA2161700021A170A4
:104420000722E2702171082262716E22A2710222BB
:10443000E271217204216172010EA172010CE1721C
:10444000010A217360730E212046FEF7B7FEA073A8
:104450000F212046FFF758FF10BD0000E5070020A0
:1044600010B5124C55212170AA2161700021A17054
:104470000722E2702171082262717822A271022261
:10448000E271217204216172010EA172010CE172CC
:10449000010A217360730E212046FEF78FFEA07380
:1044A0000F212046FFF730FF10BD0000E507002078
:1044B0003EB501239B0319439C1107231B0418439A
:1044C00021430123FDF7C4FA062210210220FDF743
:1044D000C5F9062220210220FDF7C0F9E1204002A3
:1044E000009069468C800020C88008814881A4051E
:1044F0002046FDF7F3FF012211462046FEF724F87F
:10450000012200212046FEF729F80122114620460B
:10451000FEF724F80149E01108603EBD00E100E02B
:10452000F8B5002401270D460646BF070BE0315DB4
:104530003846FEF711F8FF2101313846FDF7C8FF74
:104540000028F8D0641CAC42F1DBF8BD70B5012442
:104550000146A4072046FDF7FFFFA5152946204682
:10456000FDF7B6FF0028F9D070BD00000248012118
:104570000170417081707047100000200104020238
:10458000040405040A020C050D021004130265035D
:10459000670468046D046C0278020000303030302B
:1045A00030303030303030300000DDDDDDDDDCBB80
:1045B000BBDDDDDDDDDDDDDDDDDD9888888888883B
:1045C000888877777777778888888555555666669F
:1045D000666666666666666888888333333222223A
:1045E0002222222222222228888D00000C4600004E
:1045F00010000020800000003C2600008C460000D7
:1046000090000020280C00004C2600000000000054
:10461000000000000000000000000000000000009A
:1046200000000000005A62020000000000000000CC
:10463000000000000000000000000000000000007A
:10464000000000000000000000000000000000006A
:10465000000000000000000000000000000000005A
:1046600000000000640000000000000000000000E6
:1046700000000000000040010000000000000000F9
:0C4680000000000000000000000000002E
:04000005000010AD3A
:00000001FF
